:030000000208777C
:0C087700787FE4F6D8FD75813D0208BED4
:10049400556E6C6F636B20537563636573732100D2
:1004A400446F6F72204F70656E65642020202000B9
:1004B4005573657220002050617373776F726420E6
:1004C4004F4B202D3E20556E6C6F636B0050617353
:1004D40073776F7264204572726F722100436F7577
:1004E4006E743A200050617373776F7264204572A2
:1004F400726F722120436F756E743A20002F33009F
:1005040053595354454D204C4F434B4544210033DC
:100514002054494D4553204552524F5220005359BF
:100524005354454D204C4F434B45442120546F6F49
:10053400206D616E79206572726F727300456E74FE
:1005440065722050617373776F72643A00202020C3
:100554002020202020202020202020202000456C46
:10056400656374726F6E6963204C6F636B2053799B
:100574007374656D2053746172746564003320551F
:10058400736572733A20303030312C203030303281
:100594002C2030303033005072657373205820742F
:1005A4006F20636F6E6669726D2C202D20746F202E
:1005B40072657365742C202B20746F206D6F6469D1
:1005C40066792C204F4E2F4320746F20636C656135
:1005D400720053797374656D2052657365740045B8
:1005E4006E746572205573657228312D33293A0073
:1005F4004D6F64696679204D6F6465202D20456ECA
:1006040074657220557365722049442028312D3356
:100614002900456E746572204F6C64205057443A2B
:1006240000456E746572204E6577205057443A0039
:1006340053797374656D20526573657420627920F3
:1006440055736572004D6F646966792055736572E0
:100654002000202D20456E746572204F6C6420505C
:10066400617373776F726400496E76616C6964209C
:10067400557365722100456E74657220312D3320E7
:100684002020202000496E707574205061737377A8
:100694006F72643A20004E65656420342064696793
:1006A40069747321004F6C642050617373776F72A7
:1006B400643A2000456E746572204E65772050615F
:1006C4007373776F72642028303030302D303235B8
:1006D4003529004F6C6420505744204572726F7264
:1006E40021004F6C642050617373776F72642045EE
:1006F40072726F722100496E76616C696420526176
:100704006E67652100303030302D30323535204F62
:100714006E6C790050617373776F7264206F7574B7
:10072400206F662072616E67652028302D32353562
:100734002921004E65772050617373776F72643A94
:1007440020004D6F64696679205375636365737324
:1007540021002050617373776F7264204D6F646958
:100764006669656420746F20004E6577205061735C
:1007740073776F7264206F7574206F662072616E78
:1007840067652028302D323535292100000000010D
:08079400000000020000000358
:0D0C8E00012800013900C101C10001220050
:100C2F00C2A18F807F0A7E00120C40D2A27F0A7E63
:010C3F0000B4
:0E0C4000EF1FAC0670011E4C60030080F32213
:040C0B007FE87E03FD
:100C0F00E4FDFCC3ED9FEC9E5015E4FBFA0BBB001B
:0F0C1F00010AEB64784A70F50DBD00010C80E40A
:010C2E0022A3
:0E0C8000C2A0120C2FC2A27F027E00020C0F37
:030C60002430FF3E
:0E0C6300D2A0120C2FC2A27F027E00020C0F44
:100B50007F0F7E00120C0F7F38120C807F057E0005
:100B6000120C0F7F0C120C807F057E00120C0F0FF1
:100B7000120C807F057E00120C0F7F01120C807F0B
:060B8000057E00020C0FCF
:0A0ACE007A0579517BFF7D01E4FFFA
:060AD8008B0A8A0B890C59
:100ADE00ED7007EF2480F50D8005EF24C0F50DAF06
:100AEE000D120C80AB0AAA0BA90C12098260130519
:100AFE000CE50C7002050B14F9120982FF120C633F
:020B0E0080E283
:010B100022C2
:0C0CA9007F01120C807F027E00020C0F05
:060A3C008B0C8A0D890EEF
:100A4200ED7007EF2480F5118005EF24C0F511AF9A
:100A520011120C80E4F510E510C3950F5016AB0C83
:100A6200AA0DA90E85108275830012099B120C60D3
:100A7200051080E3850F10E510C3940450097F2010
:070A8200120C63051080F067
:010A8900224A
:10079C0079FFC297D296D295D2947F327E00120CFA
:1007AC0040209004790780132091047908800C2054
:1007BC0092047909800520930279FFE9F460030221
:1007CC00084ED297C296D295D2947F32FE120C402C
:1007DC00209004790480132091047905800C2092D8
:1007EC000479068005209302790AE9F47054D297B3
:1007FC00D296C295D2947F32FE120C40209004798E
:10080C000180132091047902800C209204790380DA
:10081C0005209302790BE9F47028D297D296D295E1
:10082C00C2947F32FE120C40209004790E8013206B
:10083C009104E4F9800C20920479FF800520930246
:10084C00790DD297D296D295D294E9F4601A7F1E84
:10085C007E00120C0F3090FD3091FA3092F73093ED
:0A086C00F47F327E00120C0FAF0182
:01087600225F
:100C4E00438920758DFD758BFDD28E759850E4F518
:020C5E008722EB
:050C9C00E5232431FFF7
:080CA1008F993099FDC29922E0
:060BB9007BFF7A0479B411
:100BBF008B0A8A0B890CAB0AAA0BA90C120982604B
:100BCF0013050CE50C7002050B14F9120982FF12C4
:050BDF000CA180E222E0
:0A0CB5007F0D120CA17F0A020CA1B2
:060BE4007B007A00793A63
:060BEA008B0A8A0B890C46
:100BF000E4FEAB0AAA0BA90C8E8275830012099B36
:0A0C00002430FF120CA10EBE04E820
:010C0A0022C7
:100A8A0090000112099B75F064A4FDACF0C004C08B
:100A9A0005120982FF7E007C037DE81209DAD0E0A4
:100AAA002FFDD0E03EFC90000212099B75F00AA4CB
:100ABA002DFFE5F03CFE90000312099B7C002FFFFE
:040ACA00EC3EFE22DE
:0E0C7100120A8AD3EF94FFEE9400500122C3C2
:010C7F002252
:060B11008B0A8A0B890C1F
:100B1700E4FFE4FEAB0AAA0BA90C8E8275830012D0
:100B2700099BFDEF25E025E024292EF8E6B50513FE
:100B3700BE030CAB0DAA0EA90FEF1209C8D3220EE4
:080B4700BE04D10FBF03CBC3B4
:010B4F002283
:1009EC00C2A3D2A5C2A47F147E00120C0F120CA9B4
:1009FC007BFF7A047994E4FDFF120AD87A0479A477
:100A0C00120AD2120BB9E5212431FF120CA17BFF83
:100A1C007A0479BA120BBF120CB57FD07E07120C78
:100A2C000FD2A3D2A47F147E00120C0FE4F539224E
:10090300C2A5D2A3D2A40539120CA97BFF7A04791C
:10091300D1E4FDFF120AD87BFF7A0479E1120AD4ED
:10092300E539120C607F2F120C637F33120C637B4B
:10093300FF7A0479E9120BBFE5392430FF120CA1C9
:100943007BFF7A057901120BBF120CB5120C0BD287
:10095300A5E539C394034026D201120CA97BFF7A83
:10096300057904E4FDFF120AD87BFF7A0579131297
:0F0973000AD47BFF7A057922120BBF120CB52232
:100B8600E4FFE4FEEF25E025E02490F582E4340757
:100B9600F583E5822EF582E43583F583E493FDEF54
:100BA60025E025E024292EF8A6050EBE04D60FBFA3
:020BB60003D06A
:010BB800221A
:10000300120B50120C4E120B86D2A3D2A5D2A47B94
:10001300FF7A057941E4FDFF120AD8120ACE7BFF6D
:100023007A057962120BBF120CB57BFF7A057981D1
:10003300120BBF120CB57BFF7A05799B02010E12DE
:10004300079C8F08E508B4FF097F327E00120C0F6E
:1000530080ED300127E508B40EE5C201E4F539F57A
:1000630028120CA97BFF7A057941E4FDFF120AD817
:10007300120ACE7BFF7A0579D602010EE508640DDC
:100083007023200020D200F522F528120CA97BFF53
:100093007A0579E3E4FDFF120AD8120ACE7BFF7AD0
:1000A3000579F48066E508640E703AF528120CA908
:1000B300300020E52270087BFF7A0579E3801BE599
:1000C300227BFFB401067A06791680047A06792525
:1000D300E480077BFF7A057941E4FDFF120AD81219
:1000E3000ACE020042E508640B7029C200F522F52E
:1000F30028F539120CA97BFF7A057941E4FDFF123B
:100103000AD8120ACE7BFF7A067934120BBF120C7F
:10011300B5020042E508C394005003020218E50843
:10012300D394094003020218E528C3940440030250
:10013300021820001074242528F8A6087B007A00F2
:10014300792402020AE52260030201E4E5287050E3
:10015300E508C394014049E508D394035042E508F8
:1001630014F523E5082430FF120C630528752201DA
:10017300E4F528120CA97BFF7A067916E4FDFF1239
:100183000AD8120ACE7BFF7A067949120BBF120CEA
:100193009C7BFF7A067956120BBF120CB50202182C
:1001A300E5287071E508C394014007E508D394037B
:1001B3004063120CA97BFF7A06796CE4FDFF120AF7
:1001C300D87BFF7A06797A120AD4120C0B120CA987
:1001D3007BFF7A0579E3E4FDFF120AD8120ACE8089
:1001E30034E522B4010F74352528F8A6087B007A7C
:1001F3000079358012E522B4021B743A2528F8A64B
:10020300087B007A00793AE52804F50F7D01E4FFC5
:10021300120A3C0528E508640A600302048A2000E8
:1002230071E528640470497BFF7A067989120BBF54
:100233007B007A007924120BEA120CB5750D007558
:100243000E00750F217B007A007924120B115005E3
:100253001209EC8006120903200112120CA97BFF7C
:100263007A057941E4FDFF120AD8120ACE02048707
:10027300E528D39400500302048A120CA97BFF7A69
:1002830006799AE4FDFF120AD8120ACE120C0B0269
:10029300042DE5226401600302038CE528640460F5
:1002A3000302038C7BFF7A0679A9120BBF7B007ACA
:1002B300007935120BEA120CB57B007A00793512FE
:0702C3000C71400302034B24
:1002CA00C202E4F509E52325E025E024292509F8F9
:1002DA00E6FF74352509F8E6B5070EE509B4030209
:1002EA00D2020509E509B404DC300221752202E4D0
:1002FA00F528120CA97BFF7A067925E4FDFF120A7C
:10030A00D8120ACE7BFF7A0679B8020383120CA9A7
:10031A007BFF7A0679D7E4FDFF120AD8120ACE12B9
:10032A000C0BC200E4F522120CA97BFF7A05794175
:0F033A00E4FDFF120AD8120ACE7BFF7A0679E69D
:100349008038120CA97BFF7A0679FAE4FDFF120ABC
:10035900D87BFF7A077909120AD4120C0BC200E480
:10036900F522120CA97BFF7A057941E4FDFF120AF7
:10037900D8120ACE7BFF7A077918120BBF120CB577
:10038900020487E52264026003020441E52864044B
:1003990060030204417BFF7A077937120BBF120B06
:1003A900E4120CB57B007A00793A120C715045E4DD
:1003B900FF743A2FF8E6FEE52325E025E024292FEE
:1003C900F8A6060FBF04EA120CA97BFF7A07794643
:1003D900E4FDFF120AD8120ACE120BB9120C9C7B4B
:1003E900FF7A077956120BBF120BE4120CB57FDCAA
:1003F9007E058028120CA97BFF7A0679FAE4FDFFB5
:10040900120AD87BFF7A077909120AD47BFF7A0787
:10041900796D120BBF120CB57FE87E03120C0FC267
:1004290000E4F522120CA97BFF7A057941E4FDFF6E
:10043900120AD8120ACE8046E52864046043E528EA
:10044900D39400403C120CA97BFF7A06799AE4FD0B
:10045900FF120AD8120ACE120C0B120CA9E522B40B
:1004690001087BFF7A067916800BE522B4020F7B1F
:10047900FF7A067925E4FDFF120AD8120ACEE4F5BF
:0B048900287F647E00120C0F0200426E
:10088300020003E493A3F8E493A34003F68001F288
:1008930008DFF48029E493A3F85407240CC8C33376
:1008A300C4540F4420C8834004F456800146F6DF45
:1008B300E4800B0102040810204080900C8EE47E3B
:1008C300019360BCA3FF543F30E509541FFEE4933A
:1008D300A360010ECF54C025E060A840B8E493A301
:1008E300FAE493A3F8E493A3C8C582C8CAC583CA2C
:1008F300F0A3C8C582C8CAC583CADFE9DEE780BEE4
:010C9B000058
:10098200BB010689828A83E0225002E722BBFE0273
:09099200E32289828A83E49322A6
:10099B00BB010CE58229F582E5833AF583E0225011
:1009AB0006E92582F8E622BBFE06E92582F8E2225B
:0D09BB00E58229F582E5833AF583E4932275
:1009C800BB010689828A83F0225002F722BBFE010E
:0209D800F32208
:1009DA00EF8DF0A4A8F0CF8CF0A428CE8DF0A42E31
:0209EA00FE22EB
:00000001FF
